:100000000EC01DC043C01BC01AC019C018C017C005
:1000100016C015C014C013C012C011C010C01124E6
:100020001FBECFE5D1E0DEBFCDBF20E0A0E6B0E04F
:1000300001C01D92A936B207E1F747D032C1E0CF27
:1000400096B1379885B7806185BF85B7877F85BFB3
:1000500085B7806285BF889585B78F7D85BF96B946
:100060000895B89AB99ABA9A08953898399A309AF0
:10007000319A379A08958FB78F778FBF8BB7806289
:100080008BBFAB9A8FB780688FBF08951F920F9276
:100090000FB60F9211248F9310926100109262009C
:1000A0001092630010926400109265001092660036
:1000B000109267001092680081E0809360008F9139
:1000C0000F900FBE0F901F901895CBDFCEDFD3DFC0
:1000D000369A3699FECF84B195B1853521E09207E5
:1000E00028F08A3A924020F0E3E003C0E1E001C04A
:1000F000E2E080916000813009F0A5C0F0E0A090BE
:100100006100B0906200C0906300D0906400E09005
:100110006500F09066000091670010916800CF01C3
:1001200068EE73E098D09C01932F990F990B492F9B
:10013000592F692F792F892FABD029F020F0C09843
:10014000C198C29A5DC0A0906100B0906200C0905A
:100150006300D0906400E0906500F090660000912C
:10016000670010916800CF0160ED77E074D09C01CA
:10017000932F990F990B492F592F692F792F892F79
:1001800087D029F020F0C098C298C19A39C0A090B9
:100190006100B0906200C0906300D0906400E09075
:1001A0006500F09066000091670010916800CF0133
:1001B00060EA7FE050D09C01932F990F990B492F53
:1001C000592F692F792F892F63D029F020F0C198FA
:1001D000C298C09A15C0C098C198C2981092610088
:1001E00010926200109263001092640010926500F9
:1001F00010926600109267001092680010926000E2
:100200002091610030916200409163005091640040
:100210006091650070916600809167009091680020
:10022000A2E32AD0209361003093620040936300E0
:10023000509364006093650070936600809367003C
:100240009093680001C0FCDE83ED90E30197F1F725
:1002500000C000003DCF0024552704C0080E591FE0
:10026000880F991F009729F076956795B8F3710567
:10027000B9F7802D952F08950024A7FD00942A0F2B
:10028000301D401D501D601D701D801D901D089566
:100290002A153B054C055D056E057F058007910716
:0602A0000895F894FFCF61
:00000001FF
